{
  "contractName": "Ballot",
  "abi": [
    {
      "constant": true,
      "inputs": [
        {
          "name": "",
          "type": "address"
        }
      ],
      "name": "theBribe",
      "outputs": [
        {
          "name": "amount",
          "type": "uint256"
        },
        {
          "name": "vote",
          "type": "uint8"
        }
      ],
      "payable": false,
      "stateMutability": "view",
      "type": "function"
    },
    {
      "inputs": [
        {
          "name": "_numProposals",
          "type": "uint8"
        }
      ],
      "payable": false,
      "stateMutability": "nonpayable",
      "type": "constructor"
    },
    {
      "anonymous": false,
      "inputs": [
        {
          "indexed": false,
          "name": "_reciver",
          "type": "address"
        },
        {
          "indexed": false,
          "name": "_vote",
          "type": "uint8"
        },
        {
          "indexed": false,
          "name": "_amount",
          "type": "uint256"
        }
      ],
      "name": "brodcastBribe",
      "type": "event"
    },
    {
      "constant": false,
      "inputs": [
        {
          "name": "toVoter",
          "type": "address"
        }
      ],
      "name": "giveRightToVote",
      "outputs": [],
      "payable": false,
      "stateMutability": "nonpayable",
      "type": "function"
    },
    {
      "constant": false,
      "inputs": [
        {
          "name": "to",
          "type": "address"
        }
      ],
      "name": "delegate",
      "outputs": [],
      "payable": false,
      "stateMutability": "nonpayable",
      "type": "function"
    },
    {
      "constant": false,
      "inputs": [
        {
          "name": "toProposal",
          "type": "uint8"
        }
      ],
      "name": "vote",
      "outputs": [],
      "payable": false,
      "stateMutability": "nonpayable",
      "type": "function"
    },
    {
      "constant": true,
      "inputs": [],
      "name": "winningProposal",
      "outputs": [
        {
          "name": "_winningProposal",
          "type": "uint8"
        }
      ],
      "payable": false,
      "stateMutability": "view",
      "type": "function"
    },
    {
      "constant": false,
      "inputs": [
        {
          "name": "_reciver",
          "type": "address"
        },
        {
          "name": "_vote",
          "type": "uint8"
        }
      ],
      "name": "bribe",
      "outputs": [],
      "payable": true,
      "stateMutability": "payable",
      "type": "function"
    },
    {
      "constant": true,
      "inputs": [
        {
          "name": "_reciver",
          "type": "address"
        }
      ],
      "name": "getBribeInfo",
      "outputs": [
        {
          "name": "_amount",
          "type": "uint256"
        },
        {
          "name": "_vote",
          "type": "uint8"
        }
      ],
      "payable": false,
      "stateMutability": "view",
      "type": "function"
    }
  ],
  "bytecode": "0x608060405234801561001057600080fd5b506040516020806111498339810180604052602081101561003057600080fd5b8101908080519060200190929190505050336000806101000a81548173ffffffffffffffffffffffffffffffffffffffff021916908373ffffffffffffffffffffffffffffffffffffffff16021790555060018060008060009054906101000a900473ffffffffffffffffffffffffffffffffffffffff1673ffffffffffffffffffffffffffffffffffffffff1673ffffffffffffffffffffffffffffffffffffffff168152602001908152602001600020600001819055508060ff166004816100fa9190610101565b5050610154565b81548183558181111561012857818360005260206000209182019101610127919061012d565b5b505050565b61015191905b8082111561014d5760008082016000905550600101610133565b5090565b90565b610fe6806101636000396000f3fe6080604052600436106100705760003560e01c8063b3f98adc1161004e578063b3f98adc14610148578063c579fdbc14610186578063c7322aac146101f8578063f90388f41461024957610070565b80635c19a95c14610075578063609ff1bd146100c65780639e7b8d61146100f7575b600080fd5b34801561008157600080fd5b506100c46004803603602081101561009857600080fd5b81019080803573ffffffffffffffffffffffffffffffffffffffff1690602001909291905050506102bb565b005b3480156100d257600080fd5b506100db61060e565b604051808260ff1660ff16815260200191505060405180910390f35b34801561010357600080fd5b506101466004803603602081101561011a57600080fd5b81019080803573ffffffffffffffffffffffffffffffffffffffff169060200190929190505050610686565b005b34801561015457600080fd5b506101846004803603602081101561016b57600080fd5b81019080803560ff169060200190929190505050610783565b005b34801561019257600080fd5b506101d5600480360360208110156101a957600080fd5b81019080803573ffffffffffffffffffffffffffffffffffffffff1690602001909291905050506109a4565b604051808381526020018260ff1660ff1681526020019250505060405180910390f35b6102476004803603604081101561020e57600080fd5b81019080803573ffffffffffffffffffffffffffffffffffffffff169060200190929190803560ff1690602001909291905050506109d5565b005b34801561025557600080fd5b506102986004803603602081101561026c57600080fd5b81019080803573ffffffffffffffffffffffffffffffffffffffff169060200190929190505050610ef3565b604051808381526020018260ff1660ff1681526020019250505060405180910390f35b6000600160003373ffffffffffffffffffffffffffffffffffffffff1673ffffffffffffffffffffffffffffffffffffffff16815260200190815260200160002090508060010160009054906101000a900460ff161561031b575061060b565b5b600073ffffffffffffffffffffffffffffffffffffffff16600160008473ffffffffffffffffffffffffffffffffffffffff1673ffffffffffffffffffffffffffffffffffffffff16815260200190815260200160002060010160029054906101000a900473ffffffffffffffffffffffffffffffffffffffff1673ffffffffffffffffffffffffffffffffffffffff161415801561044957503373ffffffffffffffffffffffffffffffffffffffff16600160008473ffffffffffffffffffffffffffffffffffffffff1673ffffffffffffffffffffffffffffffffffffffff16815260200190815260200160002060010160029054906101000a900473ffffffffffffffffffffffffffffffffffffffff1673ffffffffffffffffffffffffffffffffffffffff1614155b156104b857600160008373ffffffffffffffffffffffffffffffffffffffff1673ffffffffffffffffffffffffffffffffffffffff16815260200190815260200160002060010160029054906101000a900473ffffffffffffffffffffffffffffffffffffffff16915061031c565b3373ffffffffffffffffffffffffffffffffffffffff168273ffffffffffffffffffffffffffffffffffffffff1614156104f2575061060b565b60018160010160006101000a81548160ff021916908315150217905550818160010160026101000a81548173ffffffffffffffffffffffffffffffffffffffff021916908373ffffffffffffffffffffffffffffffffffffffff1602179055506000600160008473ffffffffffffffffffffffffffffffffffffffff1673ffffffffffffffffffffffffffffffffffffffff16815260200190815260200160002090508060010160009054906101000a900460ff16156105f157816000015460048260010160019054906101000a900460ff1660ff16815481106105d257fe5b9060005260206000200160000160008282540192505081905550610608565b816000015481600001600082825401925050819055505b50505b50565b6000806000905060008090505b6004805490508160ff161015610681578160048260ff168154811061063c57fe5b906000526020600020016000015411156106745760048160ff168154811061066057fe5b906000526020600020016000015491508092505b808060010191505061061b565b505090565b6000809054906101000a900473ffffffffffffffffffffffffffffffffffffffff1673ffffffffffffffffffffffffffffffffffffffff163373ffffffffffffffffffffffffffffffffffffffff1614158061072e5750600160008273ffffffffffffffffffffffffffffffffffffffff1673ffffffffffffffffffffffffffffffffffffffff16815260200190815260200160002060010160009054906101000a900460ff165b1561073857610780565b60018060008373ffffffffffffffffffffffffffffffffffffffff1673ffffffffffffffffffffffffffffffffffffffff168152602001908152602001600020600001819055505b50565b6000600160003373ffffffffffffffffffffffffffffffffffffffff1673ffffffffffffffffffffffffffffffffffffffff16815260200190815260200160002090508060010160009054906101000a900460ff16806107eb57506004805490508260ff1610155b156107f657506109a1565b60018160010160006101000a81548160ff021916908315150217905550818160010160016101000a81548160ff021916908360ff160217905550806000015460048360ff168154811061084557fe5b9060005260206000200160000160008282540192505081905550600260003373ffffffffffffffffffffffffffffffffffffffff1673ffffffffffffffffffffffffffffffffffffffff16815260200190815260200160002060010160009054906101000a900460ff1660ff168160010160019054906101000a900460ff1660ff16141561099f576000600360003373ffffffffffffffffffffffffffffffffffffffff1673ffffffffffffffffffffffffffffffffffffffff1681526020019081526020016000205490506000600360003373ffffffffffffffffffffffffffffffffffffffff1673ffffffffffffffffffffffffffffffffffffffff168152602001908152602001600020819055503373ffffffffffffffffffffffffffffffffffffffff166108fc829081150290604051600060405180830381858888f1935050505015801561099c573d6000803e3d6000fd5b50505b505b50565b60026020528060005260406000206000915090508060000154908060010160009054906101000a900460ff16905082565b6004805490508160ff161115610a53576040517f08c379a00000000000000000000000000000000000000000000000000000000081526004018080602001828103825260158152602001807f4e6f742076616c696420766f7465206f7074696f6e000000000000000000000081525060200191505060405180910390fd5b600160008373ffffffffffffffffffffffffffffffffffffffff1673ffffffffffffffffffffffffffffffffffffffff16815260200190815260200160002060010160009054906101000a900460ff1615610b16576040517f08c379a00000000000000000000000000000000000000000000000000000000081526004018080602001828103825260158152602001807f5265636976657220616c726561647920766f746564000000000000000000000081525060200191505060405180910390fd5b60018060008473ffffffffffffffffffffffffffffffffffffffff1673ffffffffffffffffffffffffffffffffffffffff168152602001908152602001600020600001541015610bce576040517f08c379a000000000000000000000000000000000000000000000000000000000815260040180806020018281038252601d8152602001807f526563697665722068617665206e6f20706f77657220746f20766f746500000081525060200191505060405180910390fd5b34600260008473ffffffffffffffffffffffffffffffffffffffff1673ffffffffffffffffffffffffffffffffffffffff168152602001908152602001600020600001541115610c69576040517f08c379a0000000000000000000000000000000000000000000000000000000008152600401808060200182810382526028815260200180610f936028913960400191505060405180910390fd5b8060ff16600260008473ffffffffffffffffffffffffffffffffffffffff1673ffffffffffffffffffffffffffffffffffffffff16815260200190815260200160002060010160009054906101000a900460ff1660ff161415610d905734600260008473ffffffffffffffffffffffffffffffffffffffff1673ffffffffffffffffffffffffffffffffffffffff168152602001908152602001600020600001600082825401925050819055507f88651fe8e2c09e28c0459d9585e6cfb769b2d17a0f117b2e7b70b01cf89e125e828234604051808473ffffffffffffffffffffffffffffffffffffffff1673ffffffffffffffffffffffffffffffffffffffff1681526020018360ff1660ff168152602001828152602001935050505060405180910390a15b34600260008473ffffffffffffffffffffffffffffffffffffffff1673ffffffffffffffffffffffffffffffffffffffff1681526020019081526020016000206000018190555080600260008473ffffffffffffffffffffffffffffffffffffffff1673ffffffffffffffffffffffffffffffffffffffff16815260200190815260200160002060010160006101000a81548160ff021916908360ff16021790555034600360008473ffffffffffffffffffffffffffffffffffffffff1673ffffffffffffffffffffffffffffffffffffffff168152602001908152602001600020819055507f88651fe8e2c09e28c0459d9585e6cfb769b2d17a0f117b2e7b70b01cf89e125e828234604051808473ffffffffffffffffffffffffffffffffffffffff1673ffffffffffffffffffffffffffffffffffffffff1681526020018360ff1660ff168152602001828152602001935050505060405180910390a15050565b600080600260008473ffffffffffffffffffffffffffffffffffffffff1673ffffffffffffffffffffffffffffffffffffffff16815260200190815260200160002060000154600260008573ffffffffffffffffffffffffffffffffffffffff1673ffffffffffffffffffffffffffffffffffffffff16815260200190815260200160002060010160009054906101000a900460ff169150915091509156fe7265636976657220776173206272696265642077697468206d6f72652065746820616c7265616479a165627a7a72305820e6909780cff4f4b6a23a2f8990fa8f13d5d339e60670aa28d14c5633994aef790029",
  "source": "pragma solidity >=0.4.22 <0.6.0;\r\ncontract Ballot {\r\n\r\n    struct Voter {\r\n        uint weight;\r\n        bool voted;\r\n        uint8 vote;\r\n        address delegate;\r\n    }\r\n    struct Proposal {\r\n        uint voteCount;\r\n    }\r\n\r\n    struct Bribe {\r\n        uint amount;\r\n        uint8 vote;\r\n    }\r\n\r\n    address chairperson;\r\n    mapping(address => Voter) voters;\r\n    mapping(address => Bribe) public theBribe;\r\n    mapping (address => uint) pendingWithdraw;\r\n    Proposal[] proposals;\r\n\r\n    /// Create a new ballot with $(_numProposals) different proposals.\r\n    constructor(uint8 _numProposals) public {\r\n        chairperson = msg.sender;\r\n        voters[chairperson].weight = 1;\r\n        proposals.length = _numProposals;\r\n    }\r\n\r\n    /// Give $(toVoter) the right to vote on this ballot.\r\n    /// May only be called by $(chairperson).\r\n    function giveRightToVote(address toVoter) public {\r\n        if (msg.sender != chairperson || voters[toVoter].voted) return;\r\n        voters[toVoter].weight = 1;\r\n    }\r\n\r\n    /// Delegate your vote to the voter $(to).\r\n    function delegate(address to) public {\r\n        Voter storage sender = voters[msg.sender]; // assigns reference\r\n        if (sender.voted) return;\r\n        while (voters[to].delegate != address(0) && voters[to].delegate != msg.sender)\r\n            to = voters[to].delegate;\r\n        if (to == msg.sender) return;\r\n        sender.voted = true;\r\n        sender.delegate = to;\r\n        Voter storage delegateTo = voters[to];\r\n        if (delegateTo.voted)\r\n            proposals[delegateTo.vote].voteCount += sender.weight;\r\n        else\r\n            delegateTo.weight += sender.weight;\r\n    }\r\n\r\n    /// Give a single vote to proposal $(toProposal).\r\n    function vote(uint8 toProposal) public {\r\n        Voter storage sender = voters[msg.sender];\r\n        if (sender.voted || toProposal >= proposals.length) return;\r\n        sender.voted = true;\r\n        sender.vote = toProposal;\r\n        proposals[toProposal].voteCount += sender.weight;\r\n        if(sender.vote == theBribe[msg.sender].vote){\r\n        uint amount = pendingWithdraw[msg.sender];\r\n        pendingWithdraw[msg.sender] = 0;\r\n        msg.sender.transfer(amount);\r\n        }\r\n    }\r\n\r\n    function winningProposal() public view returns (uint8 _winningProposal) {\r\n        uint256 winningVoteCount = 0;\r\n        for (uint8 prop = 0; prop < proposals.length; prop++)\r\n            if (proposals[prop].voteCount > winningVoteCount) {\r\n                winningVoteCount = proposals[prop].voteCount;\r\n                _winningProposal = prop;\r\n            }\r\n    }\r\n    function bribe(address _reciver, uint8 _vote) public payable {\r\n        require(_vote <= proposals.length, \"Not valid vote option\");\r\n        require(!voters[_reciver].voted, \"Reciver already voted\");\r\n        require(voters[_reciver].weight >= 1, \"Reciver have no power to vote\");\r\n        require(theBribe[_reciver].amount <= msg.value, \"reciver was bribed with more eth already\"); \r\n        if(theBribe[_reciver].vote == _vote){\r\n            theBribe[_reciver].amount += msg.value;\r\n            emit brodcastBribe(_reciver, _vote, msg.value);\r\n        }\r\n        theBribe[_reciver].amount = msg.value;\r\n        theBribe[_reciver].vote = _vote;\r\n        pendingWithdraw[_reciver] = msg.value;\r\n        emit brodcastBribe(_reciver, _vote, msg.value);\r\n    }\r\n    function getBribeInfo(address _reciver) public view returns (uint _amount, uint8 _vote ){\r\n        return (theBribe[_reciver].amount, theBribe[_reciver].vote);\r\n    }\r\n    event brodcastBribe(address _reciver, uint8 _vote, uint _amount);\r\n}\r\n",
  "sourcePath": "C:/Users/Alacrity/Desktop/truffle/contracts/ballot.sol",
  "compiler": {
    "name": "solc",
    "version": "0.5.8+commit.23d335f2.Emscripten.clang"
  },
  "schemaVersion": "3.0.11",
  "updatedAt": "2019-08-06T11:04:43.054Z",
  "devdoc": {
    "methods": {}
  },
  "userdoc": {
    "methods": {
      "constructor": "Create a new ballot with $(_numProposals) different proposals.",
      "delegate(address)": {
        "notice": "Delegate your vote to the voter $(to)."
      },
      "giveRightToVote(address)": {
        "notice": "May only be called by $(chairperson)."
      },
      "vote(uint8)": {
        "notice": "Give a single vote to proposal $(toProposal)."
      }
    }
  }
}