{
  "contractName": "Ballot",
  "abi": [
    {
      "constant": true,
      "inputs": [
        {
          "name": "",
          "type": "address"
        }
      ],
      "name": "theBribe",
      "outputs": [
        {
          "name": "amount",
          "type": "uint256"
        },
        {
          "name": "vote",
          "type": "uint8"
        }
      ],
      "payable": false,
      "stateMutability": "view",
      "type": "function"
    },
    {
      "inputs": [
        {
          "name": "_numProposals",
          "type": "uint8"
        }
      ],
      "payable": false,
      "stateMutability": "nonpayable",
      "type": "constructor"
    },
    {
      "anonymous": false,
      "inputs": [
        {
          "indexed": false,
          "name": "_reciver",
          "type": "address"
        },
        {
          "indexed": false,
          "name": "_vote",
          "type": "uint8"
        },
        {
          "indexed": false,
          "name": "_amount",
          "type": "uint256"
        },
        {
          "indexed": false,
          "name": "pendingWithdraw",
          "type": "uint256"
        }
      ],
      "name": "brodcastBribe",
      "type": "event"
    },
    {
      "anonymous": false,
      "inputs": [
        {
          "indexed": false,
          "name": "_reciver",
          "type": "address"
        },
        {
          "indexed": false,
          "name": "_weight",
          "type": "uint256"
        }
      ],
      "name": "rightGiven",
      "type": "event"
    },
    {
      "anonymous": false,
      "inputs": [
        {
          "indexed": false,
          "name": "_voter",
          "type": "address"
        },
        {
          "indexed": false,
          "name": "proposal",
          "type": "uint8"
        },
        {
          "indexed": false,
          "name": "wasBribed",
          "type": "bool"
        }
      ],
      "name": "addressVoted",
      "type": "event"
    },
    {
      "constant": false,
      "inputs": [
        {
          "name": "toVoter",
          "type": "address"
        }
      ],
      "name": "giveRightToVote",
      "outputs": [],
      "payable": false,
      "stateMutability": "nonpayable",
      "type": "function"
    },
    {
      "constant": true,
      "inputs": [
        {
          "name": "voter",
          "type": "address"
        }
      ],
      "name": "haveRightToVote",
      "outputs": [
        {
          "name": "",
          "type": "bool"
        }
      ],
      "payable": false,
      "stateMutability": "view",
      "type": "function"
    },
    {
      "constant": false,
      "inputs": [
        {
          "name": "to",
          "type": "address"
        }
      ],
      "name": "delegate",
      "outputs": [],
      "payable": false,
      "stateMutability": "nonpayable",
      "type": "function"
    },
    {
      "constant": false,
      "inputs": [
        {
          "name": "toProposal",
          "type": "uint8"
        }
      ],
      "name": "vote",
      "outputs": [],
      "payable": false,
      "stateMutability": "nonpayable",
      "type": "function"
    },
    {
      "constant": true,
      "inputs": [
        {
          "name": "voter",
          "type": "address"
        }
      ],
      "name": "votedFor",
      "outputs": [
        {
          "name": "proposal",
          "type": "uint8"
        }
      ],
      "payable": false,
      "stateMutability": "view",
      "type": "function"
    },
    {
      "constant": true,
      "inputs": [],
      "name": "winningProposal",
      "outputs": [
        {
          "name": "_winningProposal",
          "type": "uint8"
        }
      ],
      "payable": false,
      "stateMutability": "view",
      "type": "function"
    },
    {
      "constant": false,
      "inputs": [
        {
          "name": "_reciver",
          "type": "address"
        },
        {
          "name": "_vote",
          "type": "uint8"
        }
      ],
      "name": "bribe",
      "outputs": [],
      "payable": true,
      "stateMutability": "payable",
      "type": "function"
    },
    {
      "constant": true,
      "inputs": [
        {
          "name": "_reciver",
          "type": "address"
        }
      ],
      "name": "getBribeInfo",
      "outputs": [
        {
          "name": "_amount",
          "type": "uint256"
        },
        {
          "name": "_vote",
          "type": "uint8"
        }
      ],
      "payable": false,
      "stateMutability": "view",
      "type": "function"
    }
  ],
  "bytecode": "0x60806040523480156200001157600080fd5b50604051602080620017c1833981018060405260208110156200003357600080fd5b8101908080519060200190929190505050336000806101000a81548173ffffffffffffffffffffffffffffffffffffffff021916908373ffffffffffffffffffffffffffffffffffffffff16021790555060018060008060009054906101000a900473ffffffffffffffffffffffffffffffffffffffff1673ffffffffffffffffffffffffffffffffffffffff1673ffffffffffffffffffffffffffffffffffffffff168152602001908152602001600020600001819055508060ff16600481620000ff919062000107565b505062000160565b815481835581811115620001315781836000526020600020918201910162000130919062000136565b5b505050565b6200015d91905b808211156200015957600080820160009055506001016200013d565b5090565b90565b61165180620001706000396000f3fe6080604052600436106100865760003560e01c8063b3f98adc11610059578063b3f98adc146101c7578063c579fdbc14610205578063c7322aac14610277578063f594f13f146102c8578063f90388f41461033357610086565b80635c19a95c1461008b578063609ff1bd146100dc57806365357e3d1461010d5780639e7b8d6114610176575b600080fd5b34801561009757600080fd5b506100da600480360360208110156100ae57600080fd5b81019080803573ffffffffffffffffffffffffffffffffffffffff1690602001909291905050506103a5565b005b3480156100e857600080fd5b506100f16106f8565b604051808260ff1660ff16815260200191505060405180910390f35b34801561011957600080fd5b5061015c6004803603602081101561013057600080fd5b81019080803573ffffffffffffffffffffffffffffffffffffffff169060200190929190505050610770565b604051808215151515815260200191505060405180910390f35b34801561018257600080fd5b506101c56004803603602081101561019957600080fd5b81019080803573ffffffffffffffffffffffffffffffffffffffff1690602001909291905050506107ca565b005b3480156101d357600080fd5b50610203600480360360208110156101ea57600080fd5b81019080803560ff169060200190929190505050610974565b005b34801561021157600080fd5b506102546004803603602081101561022857600080fd5b81019080803573ffffffffffffffffffffffffffffffffffffffff169060200190929190505050610e12565b604051808381526020018260ff1660ff1681526020019250505060405180910390f35b6102c66004803603604081101561028d57600080fd5b81019080803573ffffffffffffffffffffffffffffffffffffffff169060200190929190803560ff169060200190929190505050610e43565b005b3480156102d457600080fd5b50610317600480360360208110156102eb57600080fd5b81019080803573ffffffffffffffffffffffffffffffffffffffff16906020019092919050505061143c565b604051808260ff1660ff16815260200191505060405180910390f35b34801561033f57600080fd5b506103826004803603602081101561035657600080fd5b81019080803573ffffffffffffffffffffffffffffffffffffffff16906020019092919050505061155e565b604051808381526020018260ff1660ff1681526020019250505060405180910390f35b6000600160003373ffffffffffffffffffffffffffffffffffffffff1673ffffffffffffffffffffffffffffffffffffffff16815260200190815260200160002090508060010160009054906101000a900460ff161561040557506106f5565b5b600073ffffffffffffffffffffffffffffffffffffffff16600160008473ffffffffffffffffffffffffffffffffffffffff1673ffffffffffffffffffffffffffffffffffffffff16815260200190815260200160002060010160029054906101000a900473ffffffffffffffffffffffffffffffffffffffff1673ffffffffffffffffffffffffffffffffffffffff161415801561053357503373ffffffffffffffffffffffffffffffffffffffff16600160008473ffffffffffffffffffffffffffffffffffffffff1673ffffffffffffffffffffffffffffffffffffffff16815260200190815260200160002060010160029054906101000a900473ffffffffffffffffffffffffffffffffffffffff1673ffffffffffffffffffffffffffffffffffffffff1614155b156105a257600160008373ffffffffffffffffffffffffffffffffffffffff1673ffffffffffffffffffffffffffffffffffffffff16815260200190815260200160002060010160029054906101000a900473ffffffffffffffffffffffffffffffffffffffff169150610406565b3373ffffffffffffffffffffffffffffffffffffffff168273ffffffffffffffffffffffffffffffffffffffff1614156105dc57506106f5565b60018160010160006101000a81548160ff021916908315150217905550818160010160026101000a81548173ffffffffffffffffffffffffffffffffffffffff021916908373ffffffffffffffffffffffffffffffffffffffff1602179055506000600160008473ffffffffffffffffffffffffffffffffffffffff1673ffffffffffffffffffffffffffffffffffffffff16815260200190815260200160002090508060010160009054906101000a900460ff16156106db57816000015460048260010160019054906101000a900460ff1660ff16815481106106bc57fe5b90600052602060002001600001600082825401925050819055506106f2565b816000015481600001600082825401925050819055505b50505b50565b6000806000905060008090505b6004805490508160ff16101561076b578160048260ff168154811061072657fe5b9060005260206000200160000154111561075e5760048160ff168154811061074a57fe5b906000526020600020016000015491508092505b8080600101915050610705565b505090565b600060018060008473ffffffffffffffffffffffffffffffffffffffff1673ffffffffffffffffffffffffffffffffffffffff16815260200190815260200160002060000154106107c457600190506107c5565b5b919050565b6000809054906101000a900473ffffffffffffffffffffffffffffffffffffffff1673ffffffffffffffffffffffffffffffffffffffff163373ffffffffffffffffffffffffffffffffffffffff161415806108725750600160008273ffffffffffffffffffffffffffffffffffffffff1673ffffffffffffffffffffffffffffffffffffffff16815260200190815260200160002060010160009054906101000a900460ff165b1561087c57610971565b60018060008373ffffffffffffffffffffffffffffffffffffffff1673ffffffffffffffffffffffffffffffffffffffff168152602001908152602001600020600001819055507f3a02fa327d4b5915ed0f7ba073a82aa51d3e3008b69462da5e15c671ac509c8181600160008473ffffffffffffffffffffffffffffffffffffffff1673ffffffffffffffffffffffffffffffffffffffff16815260200190815260200160002060000154604051808373ffffffffffffffffffffffffffffffffffffffff1673ffffffffffffffffffffffffffffffffffffffff1681526020018281526020019250505060405180910390a15b50565b60001515600160003373ffffffffffffffffffffffffffffffffffffffff1673ffffffffffffffffffffffffffffffffffffffff16815260200190815260200160002060010160009054906101000a900460ff16151514610a3d576040517f08c379a000000000000000000000000000000000000000000000000000000000815260040180806020018281038252600e8152602001807f416c726561647920766f7474656400000000000000000000000000000000000081525060200191505060405180910390fd5b60018060003373ffffffffffffffffffffffffffffffffffffffff1673ffffffffffffffffffffffffffffffffffffffff168152602001908152602001600020600001541015610af5576040517f08c379a00000000000000000000000000000000000000000000000000000000081526004018080602001828103825260118152602001807f4e6f2072696768747320746f20766f746500000000000000000000000000000081525060200191505060405180910390fd5b6000600160003373ffffffffffffffffffffffffffffffffffffffff1673ffffffffffffffffffffffffffffffffffffffff16815260200190815260200160002090508060010160009054906101000a900460ff1680610b5d57506004805490508260ff1610155b15610b685750610e0f565b60018160010160006101000a81548160ff021916908315150217905550818160010160016101000a81548160ff021916908360ff160217905550806000015460048360ff1681548110610bb757fe5b90600052602060002001600001600082825401925050819055507f3fdbfc68ac179d4cae196294de534a869884446005df9f6d0b8af9cc38b8783033836000604051808473ffffffffffffffffffffffffffffffffffffffff1673ffffffffffffffffffffffffffffffffffffffff1681526020018360ff1660ff16815260200182151515158152602001935050505060405180910390a1600260003373ffffffffffffffffffffffffffffffffffffffff1673ffffffffffffffffffffffffffffffffffffffff16815260200190815260200160002060010160009054906101000a900460ff1660ff168160010160019054906101000a900460ff1660ff161415610e0d576000600360003373ffffffffffffffffffffffffffffffffffffffff1673ffffffffffffffffffffffffffffffffffffffff1681526020019081526020016000205490506000600360003373ffffffffffffffffffffffffffffffffffffffff1673ffffffffffffffffffffffffffffffffffffffff168152602001908152602001600020819055503373ffffffffffffffffffffffffffffffffffffffff166108fc829081150290604051600060405180830381858888f19350505050158015610d8c573d6000803e3d6000fd5b507f3fdbfc68ac179d4cae196294de534a869884446005df9f6d0b8af9cc38b8783033846001604051808473ffffffffffffffffffffffffffffffffffffffff1673ffffffffffffffffffffffffffffffffffffffff1681526020018360ff1660ff16815260200182151515158152602001935050505060405180910390a1505b505b50565b60026020528060005260406000206000915090508060000154908060010160009054906101000a900460ff16905082565b6004805490508160ff161115610ec1576040517f08c379a00000000000000000000000000000000000000000000000000000000081526004018080602001828103825260158152602001807f4e6f742076616c696420766f7465206f7074696f6e000000000000000000000081525060200191505060405180910390fd5b600160008373ffffffffffffffffffffffffffffffffffffffff1673ffffffffffffffffffffffffffffffffffffffff16815260200190815260200160002060010160009054906101000a900460ff1615610f84576040517f08c379a00000000000000000000000000000000000000000000000000000000081526004018080602001828103825260158152602001807f5265636976657220616c726561647920766f746564000000000000000000000081525060200191505060405180910390fd5b60018060008473ffffffffffffffffffffffffffffffffffffffff1673ffffffffffffffffffffffffffffffffffffffff16815260200190815260200160002060000154101561103c576040517f08c379a000000000000000000000000000000000000000000000000000000000815260040180806020018281038252601d8152602001807f526563697665722068617665206e6f20706f77657220746f20766f746500000081525060200191505060405180910390fd5b34600260008473ffffffffffffffffffffffffffffffffffffffff1673ffffffffffffffffffffffffffffffffffffffff1681526020019081526020016000206000015411156110d7576040517f08c379a00000000000000000000000000000000000000000000000000000000081526004018080602001828103825260288152602001806115fe6028913960400191505060405180910390fd5b8060ff16600260008473ffffffffffffffffffffffffffffffffffffffff1673ffffffffffffffffffffffffffffffffffffffff16815260200190815260200160002060010160009054906101000a900460ff1660ff1614156112925734600260008473ffffffffffffffffffffffffffffffffffffffff1673ffffffffffffffffffffffffffffffffffffffff1681526020019081526020016000206000016000828254019250508190555034600360008473ffffffffffffffffffffffffffffffffffffffff1673ffffffffffffffffffffffffffffffffffffffff168152602001908152602001600020600082825401925050819055507fd27e19d62791d67d49a0e36f8b2c5a23a32616e735a43811f0d6d4847edc6b9b828234600360008773ffffffffffffffffffffffffffffffffffffffff1673ffffffffffffffffffffffffffffffffffffffff16815260200190815260200160002054604051808573ffffffffffffffffffffffffffffffffffffffff1673ffffffffffffffffffffffffffffffffffffffff1681526020018460ff1660ff16815260200183815260200182815260200194505050505060405180910390a15b34600260008473ffffffffffffffffffffffffffffffffffffffff1673ffffffffffffffffffffffffffffffffffffffff1681526020019081526020016000206000018190555080600260008473ffffffffffffffffffffffffffffffffffffffff1673ffffffffffffffffffffffffffffffffffffffff16815260200190815260200160002060010160006101000a81548160ff021916908360ff16021790555034600360008473ffffffffffffffffffffffffffffffffffffffff1673ffffffffffffffffffffffffffffffffffffffff168152602001908152602001600020819055507fd27e19d62791d67d49a0e36f8b2c5a23a32616e735a43811f0d6d4847edc6b9b828234600360008773ffffffffffffffffffffffffffffffffffffffff1673ffffffffffffffffffffffffffffffffffffffff16815260200190815260200160002054604051808573ffffffffffffffffffffffffffffffffffffffff1673ffffffffffffffffffffffffffffffffffffffff1681526020018460ff1660ff16815260200183815260200182815260200194505050505060405180910390a15050565b600060011515600160008473ffffffffffffffffffffffffffffffffffffffff1673ffffffffffffffffffffffffffffffffffffffff16815260200190815260200160002060010160009054906101000a900460ff16151514611507576040517f08c379a00000000000000000000000000000000000000000000000000000000081526004018080602001828103825260138152602001807f41646472657373206469646e277420766f74650000000000000000000000000081525060200191505060405180910390fd5b600160008373ffffffffffffffffffffffffffffffffffffffff1673ffffffffffffffffffffffffffffffffffffffff16815260200190815260200160002060010160019054906101000a900460ff169050919050565b600080600260008473ffffffffffffffffffffffffffffffffffffffff1673ffffffffffffffffffffffffffffffffffffffff16815260200190815260200160002060000154600260008573ffffffffffffffffffffffffffffffffffffffff1673ffffffffffffffffffffffffffffffffffffffff16815260200190815260200160002060010160009054906101000a900460ff169150915091509156fe7265636976657220776173206272696265642077697468206d6f72652065746820616c7265616479a165627a7a723058205c8e83b50afea826af44246986b26186e70fc34662a7a6cce23b0c3839959c300029",
  "source": "pragma solidity >=0.4.22 <0.6.0;\r\ncontract Ballot {\r\n\r\n    struct Voter {\r\n        uint weight;\r\n        bool voted;\r\n        uint8 vote;\r\n        address delegate;\r\n    }\r\n    struct Proposal {\r\n        uint voteCount;\r\n    }\r\n\r\n    struct Bribe {\r\n        uint amount;\r\n        uint8 vote;\r\n    }\r\n\r\n    address chairperson;\r\n    mapping(address => Voter) voters;\r\n    mapping(address => Bribe) public theBribe;\r\n    mapping (address => uint) pendingWithdraw;\r\n    Proposal[] proposals;\r\n\r\n    /// Create a new ballot with $(_numProposals) different proposals.\r\n    constructor(uint8 _numProposals) public {\r\n        chairperson = msg.sender;\r\n        voters[chairperson].weight = 1;\r\n        proposals.length = _numProposals;\r\n    }\r\n\r\n    /// Give $(toVoter) the right to vote on this ballot.\r\n    /// May only be called by $(chairperson).\r\n    function giveRightToVote(address toVoter) public {\r\n        if (msg.sender != chairperson || voters[toVoter].voted) return;\r\n        voters[toVoter].weight = 1;\r\n        emit rightGiven(toVoter, voters[toVoter].weight);\r\n    }\r\n    // testing function\r\n    function haveRightToVote(address voter) public view returns (bool){\r\n        if(voters[voter].weight >= 1) return true;\r\n    }\r\n\r\n    /// Delegate your vote to the voter $(to).\r\n    /* solium-disable-next-line */\r\n    function delegate(address to) public {\r\n        Voter storage sender = voters[msg.sender]; // assigns reference\r\n        if (sender.voted) return;\r\n        while (voters[to].delegate != address(0) && voters[to].delegate != msg.sender)\r\n            to = voters[to].delegate;\r\n        if (to == msg.sender) return;\r\n        sender.voted = true;\r\n        sender.delegate = to;\r\n        Voter storage delegateTo = voters[to];\r\n        if (delegateTo.voted)\r\n            proposals[delegateTo.vote].voteCount += sender.weight;\r\n        else\r\n            delegateTo.weight += sender.weight;\r\n    }\r\n\r\n    /// Give a single vote to proposal $(toProposal).\r\n    function vote(uint8 toProposal) public {\r\n        require(voters[msg.sender].voted == false, \"Already votted\");\r\n        require(voters[msg.sender].weight >= 1, \"No rights to vote\");\r\n        Voter storage sender = voters[msg.sender];\r\n        if (sender.voted || toProposal >= proposals.length) return;\r\n        sender.voted = true;\r\n        sender.vote = toProposal;\r\n        proposals[toProposal].voteCount += sender.weight;\r\n        emit addressVoted(msg.sender, toProposal, false);\r\n        if(sender.vote == theBribe[msg.sender].vote){\r\n        uint amount = pendingWithdraw[msg.sender];\r\n        pendingWithdraw[msg.sender] = 0;\r\n        msg.sender.transfer(amount);\r\n        emit addressVoted(msg.sender, toProposal, true);\r\n        }\r\n    }\r\n    // testitng funtion\r\n    function votedFor(address voter) public view returns(uint8 proposal){\r\n        require(voters[voter].voted == true, \"Address didn't vote\");\r\n        return voters[voter].vote;\r\n    }\r\n\r\n    function winningProposal() public view returns (uint8 _winningProposal) {\r\n        uint256 winningVoteCount = 0;\r\n        for (uint8 prop = 0; prop < proposals.length; prop++)\r\n            if (proposals[prop].voteCount > winningVoteCount) {\r\n                winningVoteCount = proposals[prop].voteCount;\r\n                _winningProposal = prop;\r\n            }\r\n    }\r\n    function bribe(address _reciver, uint8 _vote) public payable {\r\n        require(_vote <= proposals.length, \"Not valid vote option\");\r\n        require(!voters[_reciver].voted, \"Reciver already voted\");\r\n        require(voters[_reciver].weight >= 1, \"Reciver have no power to vote\");\r\n        require(theBribe[_reciver].amount <= msg.value, \"reciver was bribed with more eth already\");\r\n        if(theBribe[_reciver].vote == _vote){\r\n            theBribe[_reciver].amount += msg.value;\r\n            pendingWithdraw[_reciver] += msg.value;\r\n            emit brodcastBribe(_reciver, _vote, msg.value, pendingWithdraw[_reciver]);\r\n        }\r\n        theBribe[_reciver].amount = msg.value;\r\n        theBribe[_reciver].vote = _vote;\r\n        pendingWithdraw[_reciver] = msg.value;\r\n        emit brodcastBribe(_reciver, _vote, msg.value, pendingWithdraw[_reciver]);\r\n    }\r\n    // testitng funtion\r\n    function getBribeInfo(address _reciver) public view returns (uint _amount, uint8 _vote ){\r\n        return (theBribe[_reciver].amount, theBribe[_reciver].vote);\r\n    }\r\n    event brodcastBribe(address _reciver, uint8 _vote, uint _amount, uint pendingWithdraw);\r\n    event rightGiven(address _reciver, uint _weight);\r\n    event addressVoted(address _voter, uint8 proposal, bool wasBribed);\r\n}\r\n",
  "sourcePath": "C:/Users/Alacrity/Desktop/truffle/contracts/ballot.sol",
  "compiler": {
    "name": "solc",
    "version": "0.5.8+commit.23d335f2.Emscripten.clang"
  },
  "schemaVersion": "3.0.11",
  "updatedAt": "2019-08-07T09:34:48.708Z",
  "devdoc": {
    "methods": {}
  },
  "userdoc": {
    "methods": {
      "constructor": "Create a new ballot with $(_numProposals) different proposals.",
      "delegate(address)": {
        "notice": "Delegate your vote to the voter $(to)."
      },
      "giveRightToVote(address)": {
        "notice": "May only be called by $(chairperson)."
      },
      "vote(uint8)": {
        "notice": "Give a single vote to proposal $(toProposal)."
      }
    }
  }
}